{
  "_format": "hh-sol-artifact-1",
  "contractName": "SimpleSwap",
  "sourceName": "contracts/SimpleSwap.sol",
  "abi": [
    {
      "anonymous": false,
      "inputs": [
        {
          "indexed": true,
          "internalType": "address",
          "name": "user",
          "type": "address"
        },
        {
          "indexed": false,
          "internalType": "address",
          "name": "tokenIn",
          "type": "address"
        },
        {
          "indexed": false,
          "internalType": "address",
          "name": "tokenOut",
          "type": "address"
        },
        {
          "indexed": false,
          "internalType": "uint256",
          "name": "amountIn",
          "type": "uint256"
        },
        {
          "indexed": false,
          "internalType": "uint256",
          "name": "amountOut",
          "type": "uint256"
        }
      ],
      "name": "SwapExecuted",
      "type": "event"
    },
    {
      "inputs": [
        {
          "internalType": "address",
          "name": "tokenA",
          "type": "address"
        },
        {
          "internalType": "address",
          "name": "tokenB",
          "type": "address"
        },
        {
          "internalType": "uint256",
          "name": "amountADesired",
          "type": "uint256"
        },
        {
          "internalType": "uint256",
          "name": "amountBDesired",
          "type": "uint256"
        },
        {
          "internalType": "uint256",
          "name": "amountAMin",
          "type": "uint256"
        },
        {
          "internalType": "uint256",
          "name": "amountBMin",
          "type": "uint256"
        },
        {
          "internalType": "address",
          "name": "to",
          "type": "address"
        },
        {
          "internalType": "uint256",
          "name": "deadline",
          "type": "uint256"
        }
      ],
      "name": "addLiquidity",
      "outputs": [
        {
          "internalType": "uint256",
          "name": "amountA",
          "type": "uint256"
        },
        {
          "internalType": "uint256",
          "name": "amountB",
          "type": "uint256"
        },
        {
          "internalType": "uint256",
          "name": "liquidity",
          "type": "uint256"
        }
      ],
      "stateMutability": "nonpayable",
      "type": "function"
    },
    {
      "inputs": [
        {
          "internalType": "uint256",
          "name": "amountIn",
          "type": "uint256"
        },
        {
          "internalType": "uint256",
          "name": "reserveIn",
          "type": "uint256"
        },
        {
          "internalType": "uint256",
          "name": "reserveOut",
          "type": "uint256"
        }
      ],
      "name": "getAmountOut",
      "outputs": [
        {
          "internalType": "uint256",
          "name": "amountOut",
          "type": "uint256"
        }
      ],
      "stateMutability": "pure",
      "type": "function"
    },
    {
      "inputs": [
        {
          "internalType": "address",
          "name": "tokenA",
          "type": "address"
        },
        {
          "internalType": "address",
          "name": "tokenB",
          "type": "address"
        }
      ],
      "name": "getPoolId",
      "outputs": [
        {
          "internalType": "bytes32",
          "name": "",
          "type": "bytes32"
        }
      ],
      "stateMutability": "pure",
      "type": "function"
    },
    {
      "inputs": [
        {
          "internalType": "address",
          "name": "tokenA",
          "type": "address"
        },
        {
          "internalType": "address",
          "name": "tokenB",
          "type": "address"
        }
      ],
      "name": "getPrice",
      "outputs": [
        {
          "internalType": "uint256",
          "name": "price",
          "type": "uint256"
        }
      ],
      "stateMutability": "view",
      "type": "function"
    },
    {
      "inputs": [
        {
          "internalType": "bytes32",
          "name": "",
          "type": "bytes32"
        }
      ],
      "name": "pools",
      "outputs": [
        {
          "internalType": "uint256",
          "name": "reserve0",
          "type": "uint256"
        },
        {
          "internalType": "uint256",
          "name": "reserve1",
          "type": "uint256"
        },
        {
          "internalType": "uint256",
          "name": "totalLiquidity",
          "type": "uint256"
        }
      ],
      "stateMutability": "view",
      "type": "function"
    },
    {
      "inputs": [
        {
          "internalType": "address",
          "name": "tokenA",
          "type": "address"
        },
        {
          "internalType": "address",
          "name": "tokenB",
          "type": "address"
        },
        {
          "internalType": "uint256",
          "name": "liquidity",
          "type": "uint256"
        },
        {
          "internalType": "uint256",
          "name": "amountAMin",
          "type": "uint256"
        },
        {
          "internalType": "uint256",
          "name": "amountBMin",
          "type": "uint256"
        },
        {
          "internalType": "address",
          "name": "to",
          "type": "address"
        },
        {
          "internalType": "uint256",
          "name": "deadline",
          "type": "uint256"
        }
      ],
      "name": "removeLiquidity",
      "outputs": [
        {
          "internalType": "uint256",
          "name": "amountA",
          "type": "uint256"
        },
        {
          "internalType": "uint256",
          "name": "amountB",
          "type": "uint256"
        }
      ],
      "stateMutability": "nonpayable",
      "type": "function"
    },
    {
      "inputs": [
        {
          "internalType": "uint256",
          "name": "amountIn",
          "type": "uint256"
        },
        {
          "internalType": "uint256",
          "name": "amountOutMin",
          "type": "uint256"
        },
        {
          "internalType": "address[]",
          "name": "path",
          "type": "address[]"
        },
        {
          "internalType": "address",
          "name": "to",
          "type": "address"
        },
        {
          "internalType": "uint256",
          "name": "deadline",
          "type": "uint256"
        }
      ],
      "name": "swapExactTokensForTokens",
      "outputs": [
        {
          "internalType": "uint256[]",
          "name": "amounts",
          "type": "uint256[]"
        }
      ],
      "stateMutability": "nonpayable",
      "type": "function"
    }
  ],
  "bytecode": "0x6080604052348015600f57600080fd5b506001600081905550612463806100276000396000f3fe608060405234801561001057600080fd5b506004361061007d5760003560e01c8063ac41865a1161005b578063ac41865a14610112578063b5217bb414610142578063baa2abde14610174578063e8e33700146101a55761007d565b8063054d50d4146100825780632ef61c21146100b257806338ed1739146100e2575b600080fd5b61009c6004803603810190610097919061167c565b6101d7565b6040516100a991906116de565b60405180910390f35b6100cc60048036038101906100c79190611757565b6102c1565b6040516100d991906117b0565b60405180910390f35b6100fc60048036038101906100f79190611830565b610307565b6040516101099190611988565b60405180910390f35b61012c60048036038101906101279190611757565b6108e9565b60405161013991906116de565b60405180910390f35b61015c600480360381019061015791906119d6565b610a0d565b60405161016b93929190611a03565b60405180910390f35b61018e60048036038101906101899190611a3a565b610a37565b60405161019c929190611adc565b60405180910390f35b6101bf60048036038101906101ba9190611b05565b610ed2565b6040516101ce93929190611a03565b60405180910390f35b600080841161021b576040517f08c379a000000000000000000000000000000000000000000000000000000000815260040161021290611c18565b60405180910390fd5b60008311801561022b5750600082115b61026a576040517f08c379a000000000000000000000000000000000000000000000000000000000815260040161026190611c84565b60405180910390fd5b60006103e58561027a9190611cd3565b90506000838261028a9190611cd3565b90506000826103e88761029d9190611cd3565b6102a79190611d15565b905080826102b59190611d78565b93505050509392505050565b60008060006102d085856112c4565b9150915081816040516020016102e7929190611df1565b604051602081830303815290604052805190602001209250505092915050565b60606103116113f0565b81421115610354576040517f08c379a000000000000000000000000000000000000000000000000000000000815260040161034b90611e69565b60405180910390fd5b6002858590501461039a576040517f08c379a000000000000000000000000000000000000000000000000000000000815260040161039190611ed5565b60405180910390fd5b600087116103dd576040517f08c379a00000000000000000000000000000000000000000000000000000000081526004016103d490611f41565b60405180910390fd5b60008061043a878760008181106103f7576103f6611f61565b5b905060200201602081019061040c9190611f90565b888860018181106104205761041f611f61565b5b90506020020160208101906104359190611f90565b6112c4565b9150915060006001600061044e85856102c1565b81526020019081526020016000209050600061053f8b8573ffffffffffffffffffffffffffffffffffffffff168b8b600081811061048f5761048e611f61565b5b90506020020160208101906104a49190611f90565b73ffffffffffffffffffffffffffffffffffffffff16146104c95783600101546104cf565b83600001545b8673ffffffffffffffffffffffffffffffffffffffff168c8c60008181106104fa576104f9611f61565b5b905060200201602081019061050f9190611f90565b73ffffffffffffffffffffffffffffffffffffffff161461053457846000015461053a565b84600101545b6101d7565b905089811015610584576040517f08c379a000000000000000000000000000000000000000000000000000000000815260040161057b90612009565b60405180910390fd5b8888600081811061059857610597611f61565b5b90506020020160208101906105ad9190611f90565b73ffffffffffffffffffffffffffffffffffffffff166323b872dd33308e6040518463ffffffff1660e01b81526004016105e993929190612038565b6020604051808303816000875af1158015610608573d6000803e3d6000fd5b505050506040513d601f19601f8201168201806040525081019061062c91906120a7565b508888600181811061064157610640611f61565b5b90506020020160208101906106569190611f90565b73ffffffffffffffffffffffffffffffffffffffff1663a9059cbb88836040518363ffffffff1660e01b81526004016106909291906120d4565b6020604051808303816000875af11580156106af573d6000803e3d6000fd5b505050506040513d601f19601f820116820180604052508101906106d391906120a7565b508373ffffffffffffffffffffffffffffffffffffffff16898960008181106106ff576106fe611f61565b5b90506020020160208101906107149190611f90565b73ffffffffffffffffffffffffffffffffffffffff160361076a578a8260000160008282546107439190611d15565b925050819055508082600101600082825461075e91906120fd565b925050819055506107a1565b8a82600101600082825461077e9190611d15565b925050819055508082600001600082825461079991906120fd565b925050819055505b3373ffffffffffffffffffffffffffffffffffffffff167f764f0dc063c06f32d89a3f3af80c0db4be8a090901f589a478b447e0a51f09f18a8a60008181106107ed576107ec611f61565b5b90506020020160208101906108029190611f90565b8b8b600181811061081657610815611f61565b5b905060200201602081019061082b9190611f90565b8e8560405161083d9493929190612131565b60405180910390a2600267ffffffffffffffff8111156108605761085f612176565b5b60405190808252806020026020018201604052801561088e5781602001602082028036833780820191505090505b5094508a856000815181106108a6576108a5611f61565b5b60200260200101818152505080856001815181106108c7576108c6611f61565b5b602002602001018181525050505050506108df61143f565b9695505050505050565b60008060006108f885856112c4565b91509150600061090883836102c1565b9050600060016000838152602001908152602001600020905060008160000154118015610939575060008160010154115b610978576040517f08c379a000000000000000000000000000000000000000000000000000000000815260040161096f906121f1565b60405180910390fd5b8373ffffffffffffffffffffffffffffffffffffffff168773ffffffffffffffffffffffffffffffffffffffff16036109d9578060000154670de0b6b3a764000082600101546109c89190611cd3565b6109d29190611d78565b9450610a03565b8060010154670de0b6b3a764000082600001546109f69190611cd3565b610a009190611d78565b94505b5050505092915050565b60016020528060005260406000206000915090508060000154908060010154908060020154905083565b600080610a426113f0565b82421115610a85576040517f08c379a0000000000000000000000000000000000000000000000000000000008152600401610a7c9061225d565b60405180910390fd5b600080610a928b8b6112c4565b915091506000610aa283836102c1565b905060006001600083815260200190815260200160002090508a8160030160003373ffffffffffffffffffffffffffffffffffffffff1673ffffffffffffffffffffffffffffffffffffffff168152602001908152602001600020541015610b3f576040517f08c379a0000000000000000000000000000000000000000000000000000000008152600401610b36906122c9565b60405180910390fd5b6000816000015490506000826001015490508260020154828e610b629190611cd3565b610b6c9190611d78565b97508260020154818e610b7f9190611cd3565b610b899190611d78565b96508b8810158015610b9b57508a8710155b610bda576040517f08c379a0000000000000000000000000000000000000000000000000000000008152600401610bd190612009565b60405180910390fd5b87836000016000828254610bee91906120fd565b9250508190555086836001016000828254610c0991906120fd565b925050819055508c836002016000828254610c2491906120fd565b925050819055508c8360030160003373ffffffffffffffffffffffffffffffffffffffff1673ffffffffffffffffffffffffffffffffffffffff1681526020019081526020016000206000828254610c7c91906120fd565b925050819055508573ffffffffffffffffffffffffffffffffffffffff168f73ffffffffffffffffffffffffffffffffffffffff1603610db9578e73ffffffffffffffffffffffffffffffffffffffff1663a9059cbb8b8a6040518363ffffffff1660e01b8152600401610cf19291906120d4565b6020604051808303816000875af1158015610d10573d6000803e3d6000fd5b505050506040513d601f19601f82011682018060405250810190610d3491906120a7565b508d73ffffffffffffffffffffffffffffffffffffffff1663a9059cbb8b896040518363ffffffff1660e01b8152600401610d709291906120d4565b6020604051808303816000875af1158015610d8f573d6000803e3d6000fd5b505050506040513d601f19601f82011682018060405250810190610db391906120a7565b50610eb8565b8e73ffffffffffffffffffffffffffffffffffffffff1663a9059cbb8b896040518363ffffffff1660e01b8152600401610df49291906120d4565b6020604051808303816000875af1158015610e13573d6000803e3d6000fd5b505050506040513d601f19601f82011682018060405250810190610e3791906120a7565b508d73ffffffffffffffffffffffffffffffffffffffff1663a9059cbb8b8a6040518363ffffffff1660e01b8152600401610e739291906120d4565b6020604051808303816000875af1158015610e92573d6000803e3d6000fd5b505050506040513d601f19601f82011682018060405250810190610eb691906120a7565b505b505050505050610ec661143f565b97509795505050505050565b6000806000610edf6113f0565b83421115610f22576040517f08c379a0000000000000000000000000000000000000000000000000000000008152600401610f199061225d565b60405180910390fd5b868910158015610f325750858810155b610f71576040517f08c379a0000000000000000000000000000000000000000000000000000000008152600401610f6890612009565b60405180910390fd5b6000610f7d8c8c6112c4565b509050600060016000610f90848f6102c1565b815260200190815260200160002090508c73ffffffffffffffffffffffffffffffffffffffff166323b872dd33308e6040518463ffffffff1660e01b8152600401610fdd93929190612038565b6020604051808303816000875af1158015610ffc573d6000803e3d6000fd5b505050506040513d601f19601f8201168201806040525081019061102091906120a7565b508b73ffffffffffffffffffffffffffffffffffffffff166323b872dd33308d6040518463ffffffff1660e01b815260040161105e93929190612038565b6020604051808303816000875af115801561107d573d6000803e3d6000fd5b505050506040513d601f19601f820116820180604052508101906110a191906120a7565b5060008160020154036110c9576110c28a8c6110bd9190611cd3565b611449565b925061118e565b61118b8273ffffffffffffffffffffffffffffffffffffffff168e73ffffffffffffffffffffffffffffffffffffffff161461110957816001015461110f565b81600001545b82600201548d61111f9190611cd3565b6111299190611d78565b8373ffffffffffffffffffffffffffffffffffffffff168f73ffffffffffffffffffffffffffffffffffffffff161461116657826000015461116c565b82600101545b83600201548d61117c9190611cd3565b6111869190611d78565b611542565b92505b8173ffffffffffffffffffffffffffffffffffffffff168d73ffffffffffffffffffffffffffffffffffffffff16036111fc578a8160000160008282546111d59190611d15565b92505081905550898160010160008282546111f09190611d15565b92505081905550611233565b898160000160008282546112109190611d15565b925050819055508a81600101600082825461122b9190611d15565b925050819055505b828160020160008282546112479190611d15565b92505081905550828160030160008973ffffffffffffffffffffffffffffffffffffffff1673ffffffffffffffffffffffffffffffffffffffff168152602001908152602001600020600082825461129f9190611d15565b925050819055508a8a9450945050506112b661143f565b985098509895505050505050565b6000808273ffffffffffffffffffffffffffffffffffffffff168473ffffffffffffffffffffffffffffffffffffffff1603611335576040517f08c379a000000000000000000000000000000000000000000000000000000000815260040161132c90612335565b60405180910390fd5b8273ffffffffffffffffffffffffffffffffffffffff168473ffffffffffffffffffffffffffffffffffffffff161061136f578284611372565b83835b8092508193505050600073ffffffffffffffffffffffffffffffffffffffff168273ffffffffffffffffffffffffffffffffffffffff16036113e9576040517f08c379a00000000000000000000000000000000000000000000000000000000081526004016113e0906123a1565b60405180910390fd5b9250929050565b600260005403611435576040517f08c379a000000000000000000000000000000000000000000000000000000000815260040161142c9061240d565b60405180910390fd5b6002600081905550565b6001600081905550565b600080820361145b576000905061153d565b600060016114688461155b565b901c6001901b9050600181848161148257611481611d49565b5b048201901c9050600181848161149b5761149a611d49565b5b048201901c905060018184816114b4576114b3611d49565b5b048201901c905060018184816114cd576114cc611d49565b5b048201901c905060018184816114e6576114e5611d49565b5b048201901c905060018184816114ff576114fe611d49565b5b048201901c9050600181848161151857611517611d49565b5b048201901c90506115398182858161153357611532611d49565b5b04611542565b9150505b919050565b60008183106115515781611553565b825b905092915050565b600080600090506000608084901c111561157d57608083901c92506080810190505b6000604084901c111561159857604083901c92506040810190505b6000602084901c11156115b357602083901c92506020810190505b6000601084901c11156115ce57601083901c92506010810190505b6000600884901c11156115e957600883901c92506008810190505b6000600484901c111561160457600483901c92506004810190505b6000600284901c111561161f57600283901c92506002810190505b6000600184901c1115611633576001810190505b80915050919050565b600080fd5b600080fd5b6000819050919050565b61165981611646565b811461166457600080fd5b50565b60008135905061167681611650565b92915050565b6000806000606084860312156116955761169461163c565b5b60006116a386828701611667565b93505060206116b486828701611667565b92505060406116c586828701611667565b9150509250925092565b6116d881611646565b82525050565b60006020820190506116f360008301846116cf565b92915050565b600073ffffffffffffffffffffffffffffffffffffffff82169050919050565b6000611724826116f9565b9050919050565b61173481611719565b811461173f57600080fd5b50565b6000813590506117518161172b565b92915050565b6000806040838503121561176e5761176d61163c565b5b600061177c85828601611742565b925050602061178d85828601611742565b9150509250929050565b6000819050919050565b6117aa81611797565b82525050565b60006020820190506117c560008301846117a1565b92915050565b600080fd5b600080fd5b600080fd5b60008083601f8401126117f0576117ef6117cb565b5b8235905067ffffffffffffffff81111561180d5761180c6117d0565b5b602083019150836020820283011115611829576118286117d5565b5b9250929050565b60008060008060008060a0878903121561184d5761184c61163c565b5b600061185b89828a01611667565b965050602061186c89828a01611667565b955050604087013567ffffffffffffffff81111561188d5761188c611641565b5b61189989828a016117da565b945094505060606118ac89828a01611742565b92505060806118bd89828a01611667565b9150509295509295509295565b600081519050919050565b600082825260208201905092915050565b6000819050602082019050919050565b6118ff81611646565b82525050565b600061191183836118f6565b60208301905092915050565b6000602082019050919050565b6000611935826118ca565b61193f81856118d5565b935061194a836118e6565b8060005b8381101561197b5781516119628882611905565b975061196d8361191d565b92505060018101905061194e565b5085935050505092915050565b600060208201905081810360008301526119a2818461192a565b905092915050565b6119b381611797565b81146119be57600080fd5b50565b6000813590506119d0816119aa565b92915050565b6000602082840312156119ec576119eb61163c565b5b60006119fa848285016119c1565b91505092915050565b6000606082019050611a1860008301866116cf565b611a2560208301856116cf565b611a3260408301846116cf565b949350505050565b600080600080600080600060e0888a031215611a5957611a5861163c565b5b6000611a678a828b01611742565b9750506020611a788a828b01611742565b9650506040611a898a828b01611667565b9550506060611a9a8a828b01611667565b9450506080611aab8a828b01611667565b93505060a0611abc8a828b01611742565b92505060c0611acd8a828b01611667565b91505092959891949750929550565b6000604082019050611af160008301856116cf565b611afe60208301846116cf565b9392505050565b600080600080600080600080610100898b031215611b2657611b2561163c565b5b6000611b348b828c01611742565b9850506020611b458b828c01611742565b9750506040611b568b828c01611667565b9650506060611b678b828c01611667565b9550506080611b788b828c01611667565b94505060a0611b898b828c01611667565b93505060c0611b9a8b828c01611742565b92505060e0611bab8b828c01611667565b9150509295985092959890939650565b600082825260208201905092915050565b7f496e76616c696420696e70757400000000000000000000000000000000000000600082015250565b6000611c02600d83611bbb565b9150611c0d82611bcc565b602082019050919050565b60006020820190508181036000830152611c3181611bf5565b9050919050565b7f496e76616c696420726573657276657300000000000000000000000000000000600082015250565b6000611c6e601083611bbb565b9150611c7982611c38565b602082019050919050565b60006020820190508181036000830152611c9d81611c61565b9050919050565b7f4e487b7100000000000000000000000000000000000000000000000000000000600052601160045260246000fd5b6000611cde82611646565b9150611ce983611646565b9250828202611cf781611646565b91508282048414831517611d0e57611d0d611ca4565b5b5092915050565b6000611d2082611646565b9150611d2b83611646565b9250828201905080821115611d4357611d42611ca4565b5b92915050565b7f4e487b7100000000000000000000000000000000000000000000000000000000600052601260045260246000fd5b6000611d8382611646565b9150611d8e83611646565b925082611d9e57611d9d611d49565b5b828204905092915050565b60008160601b9050919050565b6000611dc182611da9565b9050919050565b6000611dd382611db6565b9050919050565b611deb611de682611719565b611dc8565b82525050565b6000611dfd8285611dda565b601482019150611e0d8284611dda565b6014820191508190509392505050565b7f5472616e73616374696f6e206578706972656400000000000000000000000000600082015250565b6000611e53601383611bbb565b9150611e5e82611e1d565b602082019050919050565b60006020820190508181036000830152611e8281611e46565b9050919050565b7f4f6e6c79203120686f7020616c6c6f7765640000000000000000000000000000600082015250565b6000611ebf601283611bbb565b9150611eca82611e89565b602082019050919050565b60006020820190508181036000830152611eee81611eb2565b9050919050565b7f5a65726f20696e70757420616d6f756e74000000000000000000000000000000600082015250565b6000611f2b601183611bbb565b9150611f3682611ef5565b602082019050919050565b60006020820190508181036000830152611f5a81611f1e565b9050919050565b7f4e487b7100000000000000000000000000000000000000000000000000000000600052603260045260246000fd5b600060208284031215611fa657611fa561163c565b5b6000611fb484828501611742565b91505092915050565b7f536c69707061676520746f6f2068696768000000000000000000000000000000600082015250565b6000611ff3601183611bbb565b9150611ffe82611fbd565b602082019050919050565b6000602082019050818103600083015261202281611fe6565b9050919050565b61203281611719565b82525050565b600060608201905061204d6000830186612029565b61205a6020830185612029565b61206760408301846116cf565b949350505050565b60008115159050919050565b6120848161206f565b811461208f57600080fd5b50565b6000815190506120a18161207b565b92915050565b6000602082840312156120bd576120bc61163c565b5b60006120cb84828501612092565b91505092915050565b60006040820190506120e96000830185612029565b6120f660208301846116cf565b9392505050565b600061210882611646565b915061211383611646565b925082820390508181111561212b5761212a611ca4565b5b92915050565b60006080820190506121466000830187612029565b6121536020830186612029565b61216060408301856116cf565b61216d60608301846116cf565b95945050505050565b7f4e487b7100000000000000000000000000000000000000000000000000000000600052604160045260246000fd5b7f456d70747920706f6f6c00000000000000000000000000000000000000000000600082015250565b60006121db600a83611bbb565b91506121e6826121a5565b602082019050919050565b6000602082019050818103600083015261220a816121ce565b9050919050565b7f446561646c696e65207061737365640000000000000000000000000000000000600082015250565b6000612247600f83611bbb565b915061225282612211565b602082019050919050565b600060208201905081810360008301526122768161223a565b9050919050565b7f4e6f7420656e6f756768206c6971756964697479000000000000000000000000600082015250565b60006122b3601483611bbb565b91506122be8261227d565b602082019050919050565b600060208201905081810360008301526122e2816122a6565b9050919050565b7f4964656e746963616c2061646472657373657300000000000000000000000000600082015250565b600061231f601383611bbb565b915061232a826122e9565b602082019050919050565b6000602082019050818103600083015261234e81612312565b9050919050565b7f5a65726f20616464726573730000000000000000000000000000000000000000600082015250565b600061238b600c83611bbb565b915061239682612355565b602082019050919050565b600060208201905081810360008301526123ba8161237e565b9050919050565b7f5265656e7472616e637947756172643a207265656e7472616e742063616c6c00600082015250565b60006123f7601f83611bbb565b9150612402826123c1565b602082019050919050565b60006020820190508181036000830152612426816123ea565b905091905056fea26469706673582212201c101702f6e277447cd0a97e8f1e63136f8bb291a7c38ab4c401c6c75617f5a964736f6c634300081c0033",
  "linkReferences": {},
  "deployedLinkReferences": {}
}